:020000040800F2
:10000000B82600209D010008A54D0008394D0008C4
:10001000A14D00082D390008F5520008000000002D
:1000200000000000000000000000000005010008C2
:10003000E53A00080000000049010008C950000826
:10004000B7010008B7010008B7010008B7010008B0
:10005000B7010008B7010008B7010008B7010008A0
:10006000B7010008B7010008B7010008B701000890
:10007000B7010008B7010008B7010008B701000880
:10008000B7010008B7010008B7010008B701000870
:10009000B7010008B7010008B7010008B701000860
:1000A000B7010008B7010008B7010008B701000850
:1000B000B7010008B7010008B7010008B701000840
:1000C000B7010008B7010008B7010008B701000830
:1000D000B701000871520008B7010008B701000815
:1000E000B7010008B7010008B7010008DFF810D019
:1000F00000F0F0F900480047095B0008AFF300800A
:10010000B8260020224B19680868B0E8F00F80F389
:100110000988BFF36F8F4FF0000080F311884EF015
:100120000D0E70470000000006480068006880F36C
:10013000088862B661B6BFF34F8FBFF36F8F00DFE1
:1001400000BF00BF08ED00E0EFF30980BFF36F8F41
:100150000F4B1A6820E9F00F106008B54FF05000FF
:1001600080F31188BFF34F8FBFF36F8F06F022FA31
:100170004FF0000080F31188BDE808401968086856
:10018000B0E8F00F80F30988BFF36F8F704700BFAE
:100190000C000020EFF30580704700000648804700
:1001A00006480047FEE7FEE7FEE7FEE7FEE7FEE75C
:1001B000FEE7FEE7FEE7FEE7DD500008ED00000881
:1001C000D2B201E000F8012B491EFBD27047002299
:1001D000F6E710B513460A4604461946FFF7F0FF46
:1001E000204610BDF0B480EA0102D40F4200B2EB09
:1001F000410F02D20246084611464A0042D0C30DC2
:10020000DDB2C1F3C752AD1A202D35DAC1F31601A4
:1002100041F4000204B15242C5F1200602FA06F18F
:100220002A411044B3EBD05F23D0C4B1012DA0EB21
:10023000C35009DCF0BC4FF0004202EAC352DBB20B
:1002400000F5000000F002B9400000F1807000EB02
:10025000C350A0F1807040EAD170490009E049081C
:1002600041EAC071A0EBC35000F50000400800EB6C
:10027000C350F0BC00F0E1B86142012202EB410141
:10028000001BF6E7F0BC704781F00041AAE780F060
:100290000040A7E780EA010210B502F000434000E9
:1002A00022D04A001FD0010E01EB1261C0F35600AC
:1002B000C2F3560240F4000042F40002A0FB022008
:1002C00000047F39140400D0401C50EA124001D4CD
:1002D0004000491EC2B20C0604EBD010401C40087E
:1002E000802A02D003E0002010BD20F00100002988
:1002F00000DA0020184310BD30B480EA010202F099
:10030000004530F0004221F0004013D090B1C30D01
:10031000D40DC2F31601C0F31600E41A41F4000133
:1003200040F400027D34914201D3641C00E0490096
:10033000002C02DA30BC002070474FF4000000238C
:10034000914201D3891A034340084FEA4101F7D192
:1003500051B1914202D14FF0004105E002D24FF07D
:10036000010101E06FF0010103EBC450284430BCEF
:1003700000F063B896230022114600F067B800F041
:10038000004220F00040C10DC0F3160040F4000010
:100390007F2901DA00207047962903DCC1F196011C
:1003A000C84001E096398840002AF4D040427047A6
:1003B000002801DBC0F10040002901DBC1F1004150
:1003C00081427047002801DBC0F10040002901DBB9
:1003D000C1F10041884270472DE9F05F05460020D9
:1003E00092469B4688460646814640241BE02846A6
:1003F00041464746224600F08EF853465A46C01AF8
:10040000914110D311461846224600F075F82D1A76
:1004100067EB01084F4622460120002100F06CF8EE
:1004200017EB00094E41201EA4F10104DFDC484611
:1004300031462A464346BDE8F09F0029A8BF7047D1
:10044000401C490008BF20F00100704710B4B0FA0A
:1004500080FC00FA0CF050EA010404BF10BC7047A5
:1004600049B1CCF1200421FA04F411FA0CF118BFBF
:10047000012121430843A3EB0C01CB1D4FEA00618E
:100480004FEA102042BF002010BC704700EBC35061
:1004900010440029A4BF10BC7047401C490008BF8D
:1004A00020F0010010BC7047420005D0C0F3C752D5
:1004B0005242914201DC0020704700EBC15070476E
:1004C000C10F80EAE0700844CA0796230021FFF7B5
:1004D000BDBF0000064C074D06E0E06840F0010398
:1004E00094E8070098471034AC42F6D3FFF702FEB9
:1004F000346C0008546C0008202A04DB203A00FA0F
:1005000002F1002070479140C2F1200320FA03F36A
:10051000194390407047202A04DB203A21FA02F068
:100520000021704721FA02F3D040C2F1200291402D
:1005300008431946704700000446264600BF30466F
:1005400001F0BCF8054645B1294606A004F0D4FEEA
:100550004FF47A7005F0B0FFF1E7642005F0ACFFCE
:10056000EDE70000425137363934305F4170705248
:10057000756E4379636C65206661696C2C207265C9
:1005800074203D2025640D0A000000007CB504465F
:100590000020022123460A02CDE900100AA10D48DD
:1005A00006F006F90546012D01D000207CBD002093
:1005B000012103468022CDE9001007A1074806F07B
:1005C000F7F805462846F1E7424D535F436F7265E1
:1005D00000000000390500084C454400914D00081A
:1005E00010B54FF48061044803F080FE012800D16B
:1005F00010BD0020FCE70000000C014010B50446CF
:100600000CB1012000E0002002464FF48061024856
:1006100003F07EFE10BD0000000C014010B54FF449
:100620008051044803F062FE012800D110BD002073
:10063000FCE70000000C014010B504460CB101209D
:1006400000E0002002464FF48051024803F060FEB3
:1006500010BD0000000C014010B54FF400610448CB
:1006600003F044FE012800D110BD0020FCE700008B
:10067000000C014010B504460CB1012000E0002040
:1006800002464FF40061024803F042FE10BD000034
:10069000000C014010B50446062C52D2DFE804F0ED
:1006A00003101D2A37440020FFF7A8FF0020FFF7A2
:1006B000E1FF0020FFF7C0FF002000F04BF94DE004
:1006C0000120FFF7B9FF012000F044F90020FFF7F7
:1006D00095FF0020FFF7CEFF40E00120FFF7ACFFC1
:1006E000002000F037F90120FFF788FF0120FFF715
:1006F000C1FF33E00120FFF79FFF002000F02AF93F
:100700000020FFF77BFF0120FFF7B4FF26E0012068
:10071000FFF792FF002000F01DF90120FFF76EFFA8
:100720000020FFF7A7FF19E00120FFF785FF002059
:1007300000F010F90020FFF761FF0020FFF79AFF9B
:100740000CE00020FFF75AFF0020FFF793FF002086
:10075000FFF772FF002000F0FDF800BF00BF10BDE2
:1007600010B504460CB9012010BD00F003F90020BB
:1007700020706070FFF78EFF0020F5E770B504462B
:1007800004B970BD18A004F0B7FD207800F072F82D
:100790000546294619A004F0AFFD607800F06AF81C
:1007A000054629461AA004F0A7FDFFF719FF0546E4
:1007B00029461CA004F0A0FDFFF74EFF0546294680
:1007C0001DA004F099FDFFF729FF054629461FA04B
:1007D00004F092FD00F0B0F80546294620A004F090
:1007E0008BFD00BFCDE700005B4251373632303021
:1007F00020455845435D0D0A000000005354415404
:100800004520202020202020203D2025730D0A0097
:100810004C4153545F53544154452020203D2025E2
:10082000730D0A00504231305F4348475F454E2008
:10083000203D2025640D0A00504231315F4453476A
:100840005F454E20203D2025640D0A005042313284
:100850005F43505F454E2020203D2025640D0A0057
:10086000504231335F504348475F454E203D20257D
:10087000640D0A000146062910D2DFE801F00305E5
:1008800007090B0D06A0704706A0FCE708A0FAE7D1
:100890000AA0F8E70CA0F6E70EA0F4E711A0F2E733
:1008A0004F464600505245434841524745000000DC
:1008B0004E4F524D414C5F4F4E0000004348475F42
:1008C000424C4F434B0000004453475F424C4F4360
:1008D0004B0000004348475F4453475F424C4F433F
:1008E0004B000000554E4B4E4F574E0070B504461E
:1008F0000D4604B10DB9012070BD287808B1052658
:100900000EE0687818B1A87808B1052608E0687884
:1009100008B1032604E0A87808B1042600E0022606
:100920002078B04202D02078607026702078FFF7DF
:10093000B1FE0020E0E7000010B54FF4005104487C
:1009400003F0D4FC012800D110BD0020FCE700001A
:10095000000C014010B504460CB1012000E000205D
:1009600002464FF40051024803F0D2FC10BD0000D3
:10097000000C014000B585B000200190029003906A
:10098000049000BF1948806940F008001749886149
:100990000846806900F00800009000BF00BF4FF4D7
:1009A00070500190012002900020039002200490DA
:1009B00001A90F4803F00AFB00224FF480610C48A4
:1009C00003F0A6FC00224FF40061094803F0A0FCEC
:1009D00000224FF48051064803F09AFC00224FF4A5
:1009E0000051034803F094FC05B000BD0010024024
:1009F000000C014070B502460024002502B109B97F
:100A0000012070BD01230FE032F8130032F81460AA
:100A1000B04200DD1C4632F8130032F81560B042D7
:100A200000DA1D46581CC3B2092BEDDB32F8140066
:100A3000088032F81500488008884E88801B88801E
:100A40000348005D88710248405DC8710020D8E706
:100A5000226B000870B504460CB9012070BD04F18A
:100A60004E0001F029FD30A004F046FC37A004F050
:100A700043FC3EA004F040FC44A004F03DFC02F026
:100A800049FF48A004F038FC04F10A01204602F0B6
:100A9000B3FA05460DB10B20E0E747A004F02CFCAB
:100AA0004DA004F029FC204601F028FE51A004F0DE
:100AB00023FC618953A004F01FFCB4F90C1057A06B
:100AC00004F01AFC224604F10A0104F1620002F06B
:100AD000B9FA05460DB10C20C0E7204601F00EFE24
:100AE00004F10F01481E02F0DFFB05460DB10D2099
:100AF000B4E7214604F17C0002F044FB05460DB149
:100B00000E20ABE74BA004F0F7FBE1784FA004F018
:100B1000F3FB217952A004F0EFFBE17BA07B02F014
:100B2000ABFB00209AE700000D0A3D3D3D3D3D3DF9
:100B30003D3D3D3D3D3D3D3D3D3D3D3D3D3D3D3DE5
:100B40003D3D3D3D3D3D0D0A000000004251373620
:100B500039343020392D43656C6C20566F6C7461CC
:100B6000676520546573740D0A0000003D3D3D3DEE
:100B70003D3D3D3D3D3D3D3D3D3D3D3D3D3D3D3DA5
:100B80003D3D3D3D3D3D3D3D0D0A00004D43555F22
:100B900057414B455F42512073746172742E2E2E63
:100BA0000D0A00004D43555F57414B455F425120B0
:100BB000646F6E652E0D0A00425137363934305F4E
:100BC000496E6974466F724272696E675570206F24
:100BD0006B2E0D0A00000000425137363934305F69
:100BE00052656164426173696352656773206F6B1C
:100BF0002E0D0A000D0A5B4144432043616C69627B
:100C00005D0D0A004741494E5F75565F7065725F22
:100C10004C5342203D2025640D0A00004F464653A8
:100C200045545F6D56202020202020203D20256443
:100C30000D0A00000D0A5B4F43442F5343442043E9
:100C40004F4E4649475D0D0A0000000050524F5478
:100C500045435431203D203078253032580D0A006C
:100C600050524F5445435432203D20307825303285
:100C7000580D0A000146002091F840200AB140F0CA
:100C800001004122525C0AB140F002004222525C53
:100C90000AB140F004004722525C0AB140F008005B
:100CA0004A22525C0AB140F0100070470146002011
:100CB00091F87A200AB140F0010091F87B200AB146
:100CC00040F0020091F886200AB140F0040091F84B
:100CD00084200AB140F0080091F885200AB140F064
:100CE000100091F89C200AB140F0200070470000ED
:100CF00070B504460CB9012070BD204600F025FCFB
:100D0000064626A004F0F8FA31462AA004F0F4FAC8
:100D100094F89C102DA004F0EFFA94F89D1031A0E7
:100D200004F0EAFA3E20015D34A004F0E5FAA18F58
:100D300038A004F0E1FA66B994F89C0038B13BA100
:100D4000204601F033F805460DB10220D4E700201B
:100D5000D2E794F89C0078B9A08FB4F8901088423C
:100D600008DB3E20015D204600F0B8FF05460DB1CE
:100D70000320C1E70020BFE7A18F9220005B8142E2
:100D800009DC2FA1204601F011F805460DB1042021
:100D9000B2E70020B0E70020AEE700005B42414C24
:100DA000414E4345204155544F204442475D0D0A72
:100DB00000000000414C4C4F575F42414C414E43B4
:100DC000452020203D2025640D0A000042414C5F53
:100DD0004143544956452020202020203D202564B1
:100DE0000D0A000042414C5F5441524745542020B7
:100DF000202020203D2025640D0A0000564D41583A
:100E00005F4C4142454C2020202020203D2025647D
:100E10000D0A0000444946465F6D562020202020E0
:100E2000202020203D2025640D0A000062616C61B5
:100E30006E6365206E6F7420616C6C6F7765640003
:100E4000646966662062656C6F77206578697420D6
:100E50007468726573686F6C6400000070B5044656
:100E60000CB9012070BD32A004F046FA4A20015DA1
:100E700036A004F041FA94F87B1038A004F03CFA54
:100E80004A20005D002820D094F87B0000281CD167
:100E900002F049FB05460DB10220E3E7012084F88A
:100EA0007B0035A000F0C4FB05460DB10420D9E756
:100EB00036A004F021FA44A004F01EFA48A004F081
:100EC0001BFA32A004F018FA30E04A20005D002836
:100ED0002CD194F87B00002828D04120005D002808
:100EE00024D14720005D002820D194F87A00002802
:100EF0001CD1012002F017FB05460DB10320B1E71C
:100F0000002084F87B0040A000F092FB05460DB164
:100F10000520A7E71DA004F0EFF92BA004F0ECF9E1
:100F20003EA004F0E9F919A004F0E6F9002099E7E1
:100F30005B4C4F572054454D502050524F54454321
:100F400054204442475D0D0A0000000055545F469E
:100F50004C4147203D2025640D0A000055545F4355
:100F600048475F424C4F434B5F41435449564520ED
:100F70003D2025640D0A0000555420414354495634
:100F80004520524541444241434B00002D2D2D2D1B
:100F90002D2D2D2D2D2D2D2D2D2D2D2D2D2D2D2D81
:100FA0002D2D2D2D2D2D2D2D2D2D2D2D2D2D2D2D71
:100FB0002D2D2D2D2D2D2D2D2D2D2D2D2D2D2D2D61
:100FC0002D2D0D0A000000005B4C4F572054454D5D
:100FD000502050524F544543545D0D0A000000000C
:100FE000555420616374697665202D3E204348473F
:100FF0003D4F46462C2044534720756E6368616E12
:101000006765640D0A0000005554205245434F5651
:10101000455220524541444241434B0055542072B1
:1010200065636F766572202D3E204348473D4F4EE5
:101030002C2044534720756E6368616E6765640DAC
:101040000A00000070B504460CB9012070BDA07BF9
:1010500000F00306A07B00F0010010B1012084F82D
:101060008400A07B00F0020010B1012084F885000C
:101070003CA004F041F9A17B40A004F03DF994F8B4
:10108000841046A004F038F994F885104AA004F0C2
:1010900033F994F886104FA004F02EF9002E2BD0CF
:1010A00094F88600002827D102F060FA05460DB1B9
:1010B0000220CBE7012084F886004DA000F0B8FAAA
:1010C00005460DB10320C1E74FA004F015F95DA05E
:1010D00004F012F9A07B00F0020018B15EA004F049
:1010E0000BF906E0A07B00F0010010B164A004F051
:1010F00003F945A004F000F994F8870000282ED0E9
:1011000094F8860000282AD0002E28D194F84000B8
:10111000002824D14720005D002820D1012002F0C2
:1011200025FA05460DB1042090E700208434A07014
:1011300020706070E070843C5BA000F079FA054696
:101140000DB1052082E730A004F0D6F83DA004F0F0
:10115000D3F85CA004F0D0F82BA004F0CDF8002068
:1011600074E700005B4F43442F5343442050524FD9
:1011700054454354204442475D0D0A005359535F80
:1011800053544154202020202020202020202020A3
:101190003D203078253032580D0A000048575F4F07
:1011A00043445F41435449564520202020202020BD
:1011B0003D2025640D0A000048575F5343445F41BA
:1011C0004354495645202020202020203D202564DE
:1011D0000D0A000048575F4453475F424C4F434B52
:1011E0005F414354495645203D2025640D0A0000C7
:1011F0004F43442F534344204143544956452052C2
:101200004541444241434B002D2D2D2D2D2D2D2D9B
:101210002D2D2D2D2D2D2D2D2D2D2D2D2D2D2D2DFE
:101220002D2D2D2D2D2D2D2D2D2D2D2D2D2D2D2DEE
:101230002D2D2D2D2D2D2D2D2D2D2D2D2D2D0D0A21
:10124000000000005B4F43442F5343442050524F53
:10125000544543545D0D0A0053434420616374694F
:101260007665202D3E204453473D4F46462C204373
:10127000484720756E6368616E6765640D0A0000FB
:101280004F434420616374697665202D3E204453AA
:10129000473D4F46462C2043484720756E636861A2
:1012A0006E6765640D0A00004F43442F534344208A
:1012B0005245434F56455220524541444241434BCB
:1012C000000000004F43442F534344207265636F76
:1012D000766572202D3E204453473D4F4E2C2043CF
:1012E000484720756E6368616E6765640D0A00008B
:1012F00070B504460CB9012070BD4720005D002880
:101300001ED094F87A0000281AD10021084602F075
:1013100050F905460DB10220EEE71FA003F0ECFFE7
:101320002CA003F0E9FF30A003F0E6FF012084F8D1
:101330007A0030A003F0E0FF17A003F0DDFF29E002
:101340004720005D002825D194F87A00002821D09C
:101350004120005D00281DD194F84000002819D1DB
:101360000121084602F025F905460DB10320C3E727
:1013700009A003F0C1FF17A003F0BEFF25A003F0F2
:10138000BBFF002084F87A0025A003F0B5FF02A07F
:1013900003F0B2FF0020AFE72D2D2D2D2D2D2D2D8B
:1013A0002D2D2D2D2D2D2D2D2D2D2D2D2D2D2D2D6D
:1013B0002D2D2D2D2D2D2D2D2D2D2D2D2D2D2D2D5D
:1013C0002D2D2D2D2D2D2D2D2D2D2D2D2D2D0D0A90
:1013D000000000005B54454D502050524F5445438F
:1013E000545D0D0A00000000BFAACABCB9D8B1D52F
:1013F0000D0A00004F5420616374697665202D3E0C
:10140000204348473D4F46462C204453473D4F46D6
:10141000460D0A00BFAACABCBFAAC6F40D0A000046
:101420004F54207265636F766572202D3E204348CD
:10143000473D4F4E2C204453473D4F4E0D0A000070
:1014400010B5044604B910BDA8212046FEF7BFFE22
:101450004FF44860A4F84E0040F6E4415020015398
:1014600041F254015220015341F222015420015310
:101470009621562001537821582001534FF41671BC
:101480005A20015340F226215C200153C8215E20DE
:101490000153E621602001530020623420766076FB
:1014A00041F2680024F8620940F6B8316420015323
:1014B000502166200155002044F8700F2071E08013
:1014C000208103202073703C07217D2001550521D8
:1014D0007E2001550F217F200155002004F8800F48
:1014E0006070A070E07020716071A071E071803C4C
:1014F00004F1880000F0EAFD04F18B0000F0E6FD45
:1015000004F1A400FFF72CF9012004F88E0F0C2041
:101510006070502060808E3C1E219220015340F666
:101520003C7194200153C82198200151002084F877
:101530009C0084F89D0004F19E0000F0C7FD04F1BA
:10154000A10000F0C3FD00BF7DE7014609B90020FE
:101550007047086F002801DB086F01E0086F404208
:10156000024691F8400008B10020F1E74120405CBC
:1015700008B10020ECE74720405C08B10020E7E715
:101580004A20405C08B10020E2E791F87A0008B1F7
:101590000020DDE791F87B0008B10020D8E791F842
:1015A000860008B10020D3E791F8840008B100203C
:1015B000CEE791F8850008B10020C9E7982040588F
:1015C000904201DA0020C3E70B8F9420405A8342F7
:1015D00001DA0020BCE70120BAE70146322901DB2D
:1015E0000120704711F1320F02DC4FF0FF30F8E7B5
:1015F0000020F6E770B504460D46164632462946E9
:10160000204600F007F870BD10B54254140A4B1C78
:10161000C45410BD10B54254C2F307244B1CC4542B
:10162000C2F307448B1CC454130ECC1C035510BDCD
:1016300038B504466946052001F03CFF08B1012099
:1016400038BD21460BA003F057FE9DF800100BA0FB
:1016500003F052FE9DF80000C0F340010DA003F01E
:101660004BFE9DF8000000F001010FA003F044FEC6
:101670000020E5E75B25735D0D0A00005359535FB9
:101680004354524C32203D203078253032580D0AD8
:10169000000000004453475F4F4E202020203D2093
:1016A00025640D0A000000004348475F4F4E20208C
:1016B00020203D2025640D0A0000000030B589B0CF
:1016C000044614B9012009B030BD04F1220204F12E
:1016D0001001881F01F0FFFD05460DB10B20F2E758
:1016E00004F1220000F0D7FC606304F1380104F13A
:1016F0002200FFF77FF905460DB10C20E3E704F166
:10170000400304F14E0204F1380104F1220001F01B
:1017100083FF05460DB10D20D5E700F03BFC0546E3
:101720002DB1294691A003F0E7FD0E20CBE74FF441
:10173000167000F067FC05462DB1294694A003F011
:10174000DBFD0F20BFE704F1680000F0C7FB054692
:101750002DB1294696A003F0CFFD1020B3E7B4F9D0
:101760006C0004F170024FF47A6100F0A9FB0546A9
:101770002DB1294696A003F0BFFD1120A3E7206FED
:10178000FFF72BFF84F8740004F1760001F0ACFE43
:1017900005462DB1294698A003F0AEFD122092E730
:1017A000B4F8760004F1780100F0BCFC05462DB1D8
:1017B00029469AA003F0A0FD132084E7B4F978002D
:1017C00004F1400204F14E0102F017F805462DB174
:1017D00029469BA003F090FD142074E7B4F978002B
:1017E00004F1400204F14E0101F0F0FF05462DB175
:1017F00029469DA003F080FD162064E72046FFF7F0
:1018000077FD05462DB12946A2A003F075FD1520F0
:1018100059E72046FFF722FB05462DB12946A7A030
:1018200003F06AFD16204EE704F10E0001F02EFDD4
:1018300005462DB12946ACA003F05EFD172042E716
:10184000A07B04F1810101F0F4FB05462DB129468E
:10185000B0A003F051FD182035E72046FFF7F2FB5A
:1018600005462DB12946B6A003F046FD1B202AE708
:101870002046FFF73DFA05462DB12946BBA003F0EF
:101880003BFD1E201FE714F87A0F8DF820006078CA
:101890008DF82100207B7A3C8DF8220008A904F104
:1018A000A400FFF723F805462DB12946B9A003F09F
:1018B00023FD1F2007E7C1A003F01EFD04F1220154
:1018C00004F11000626B00F061FE04F13800616BFE
:1018D00000F0B6FF04F1400000F048FD94F97420D8
:1018E00004F16800216F01F09DF96834607F217F69
:1018F000A27FE37CCDE90332CDE90510A07CB4F9E9
:10190000101094F90C20CDE90021029054F8340C09
:10191000A368683C04F1400204F1380101F00AF8C0
:10192000B4F97810B4F8760001F0B4FA04F140008C
:1019300001F008FB04F1400001F018F9A07B01F070
:1019400049FC94F89D1094F89C0004F1A10200F069
:1019500069FE04F1A400FEF711FF204600F044F9EF
:1019600096A003F0C9FC0020ADE600005B43435D98
:101970002053746172744F6E6553686F7420666192
:10198000696C2C20726574203D2025640D0A0000CE
:101990005B43435D205761697452656164792066D9
:1019A00061696C2C20726574203D2025640D0A004D
:1019B0005B43435D205265616452617720666169D3
:1019C0006C2C20726574203D2025640D0A000000F7
:1019D0005B43435D20436F6E76657274546F43754D
:1019E0007272656E74206661696C2C207265742059
:1019F0003D2025640D0A00005B54454D505D20528A
:101A000065616420545331206661696C2C207265D5
:101A100074203D2025640D0A000000005B54454DF4
:101A2000505D20436F6E766572742054533120668A
:101A300061696C2C20726574203D2025640D0A00BC
:101A40005B54454D5020414C41524D5D20757064B2
:101A5000617465206661696C2C20726574203D207C
:101A600025640D0A000000005B4C4F572054454D83
:101A70005020414C41524D5D207570646174652069
:101A80006661696C2C20726574203D2025640D0A06
:101A9000000000005B54454D502050524F544543C8
:101AA000545D2068616E646C65206661696C2C20F1
:101AB000726574203D2025640D0A00005B4C4F5771
:101AC0002054454D502050524F544543545D20689A
:101AD000616E646C65206661696C2C20726574208F
:101AE0003D2025640D0A00005B4857204641554CB7
:101AF000545D2072656164205359535F53544154BF
:101B0000206661696C2C20726574203D2025640D6F
:101B10000A0000005B4857204641554C545D206741
:101B2000657420616374697665206D61736B2066EE
:101B300061696C2C20726574203D2025640D0A00BB
:101B40005B4F43442F5343442050524F544543541A
:101B50005D2068616E646C65206661696C2C207222
:101B60006574203D2025640D0A0000005B42414C55
:101B7000414E4345204155544F5D2068616E646C71
:101B800065206661696C2C20726574203D20256497
:101B90000D0A00005B42513736323030204558453F
:101BA000435D20757064617465206661696C2C20EA
:101BB000726574203D2025640D0A00002D2D2D2D09
:101BC0002D2D2D2D2D2D2D2D2D2D2D2D2D2D2D2D45
:101BD0002D2D2D2D2D2D2D2D2D2D2D2D2D2D2D2D35
:101BE0002D2D2D2D0D0A00007CB5044614B101F0F9
:101BF00035FF00B97CBD00216846626BFFF70AFD26
:101C000004216846226FFFF7F5FC0822694640F27E
:101C1000013001F029FF054605B1EBE7628C002198
:101C20006846FFF7F1FCA28C02216846FFF7ECFC46
:101C3000E28C04216846FFF7E7FC228D0621684606
:101C4000FFF7E2FC0822694640F2023001F00CFF87
:101C5000054605B1CEE7628D00216846FFF7D4FC4A
:101C6000A28D02216846FFF7CFFCE28D0421684671
:101C7000FFF7CAFC228E06216846FFF7C5FC082242
:101C8000694640F2033001F0EFFE054605B1B1E7C9
:101C9000628E00216846FFF7B7FCB4F8780082B284
:101CA00002216846FFF7B0FC2046FEF7E3FF8DF8FF
:101CB00004002046FEF7FAFF8DF8050094F89D0019
:101CC0008DF8060094F874008DF807000822694624
:101CD0004FF4417001F0C8FE00BF8BE770B50446B9
:101CE0000E460CB9012070BD04F19E01304600F093
:101CF000BFF805460DB10220F5E704F19E0001F0A2
:101D000093FD05460DB10320EDE704F1A10001F0BC
:101D10005AFB05460DB10420E5E7012084F89C003C
:101D200084F89D6007A003F0E7FA15A003F0E4FA39
:101D3000314618A003F0E0FA02A003F0DDFA00201B
:101D4000D1E700002D2D2D2D2D2D2D2D2D2D2D2DBF
:101D50002D2D2D2D2D2D2D2D2D2D2D2D2D2D2D2DB3
:101D60002D2D2D2D2D2D2D2D2D2D2D2D2D2D2D2DA3
:101D70002D2D2D2D2D2D2D2D2D2D0D0A000000008A
:101D80005B42414C414E4345204155544F5D0D0A45
:101D90000000000053746172742062616C616E63B4
:101DA00065202D3E20564325640D0A0070B504467B
:101DB0000E460CB9012070BD04F19E0000F086F9BA
:101DC00004F19E0001F030FD05460DB10220F2E75E
:101DD00004F1A10001F0F7FA05460DB10320EAE78E
:101DE000002084F89C0084F89D0007A003F084FA8A
:101DF00014A003F081FA314617A003F07DFA02A087
:101E000003F07AFA0020D6E72D2D2D2D2D2D2D2D26
:101E10002D2D2D2D2D2D2D2D2D2D2D2D2D2D2D2DF2
:101E20002D2D2D2D2D2D2D2D2D2D2D2D2D2D2D2DE2
:101E30002D2D2D2D2D2D2D2D2D2D2D2D2D2D0D0A15
:101E4000000000005B42414C414E43452041555447
:101E50004F5D0D0A0000000053746F702062616CCA
:101E6000616E6365202D3E2025730D0A0000000081
:101E700000B502460B460BB9012000BD184600F024
:101E800025F932B1052A04D8501E0121814019706C
:101E900014E0062A06D30A2A04D8901F01218140A3
:101EA00059700BE00B2A07D30F2A05D8A2F10B00BB
:101EB00001218140997001E00120DEE70020DCE78C
:101EC00010B5034602B109B9012010BD42F2F80075
:101ED000584390FBF1F414600020F6E738B504464F
:101EE00000250CB9012038BD6946322001F0E2FA24
:101EF00005462DB1294615A003F0FEF90220F2E7B0
:101F00000DF10101332001F0D5FA05462DB1294626
:101F100017A003F0F1F90320E5E79DF80000207019
:101F20009DF8010060709DF801009DF8001040EAE6
:101F300001206080608800B2A0808021002001F034
:101F40008FFC08B10220CEE70020CCE75B434320A2
:101F5000434D505D205265616452656720484920B9
:101F60006661696C2C207265743D25640D0A000061
:101F70005B434320434D505D205265616452656769
:101F8000204C4F206661696C2C207265743D25647D
:101F90000D0A000008B56946052001F08BFA08B16A
:101FA000022008BD9DF8000000F0BF0000909DF8E1
:101FB000000000F0DF0000909DF80010052001F007
:101FC0004FFC08B10220ECE7802000F087F869465A
:101FD000052001F06FFA08B10220E2E79DF8000049
:101FE00000F0BF0000909DF8000040F0200000903D
:101FF0009DF80010052001F033FC08B10220D0E765
:102000000020CEE738B50446002513E069460020DD
:1020100001F050FA08B1022038BD9DF8000000F030
:10202000800008B10020F7E70A2003F0FDFB05F16E
:102030000A0085B2A542E9DB0320EDE770B503464F
:102040000C46002016E0802111E000F080051DB153
:102050004506280E504001E04506280E1D780D402B
:1020600005B150400D4601EBD576C6F34701002976
:10207000EBD15B1C251EA4F10106F4B2E3D170BDC7
:1020800030B50346981A4FF47A756843B0FBF1F403
:10209000C4F3071030BD024600230AB90020704780
:1020A000002104E032F811000344481CC1B20929A0
:1020B000F8DB1846F3E730B50346981A4FF47A7503
:1020C0006843B0FBF1F4C4F3071030BD00B97047AA
:1020D000002101704170817000BFF8E710B504461F
:1020E0002146002001F0BCFB10BD30B5044613466C
:1020F000002201B10BB9012030BD088860434FF4C4
:102100007A75B0FBF5F2B1F902000244002A01DA57
:10211000002204E0B2F5803F01DB4FF6FF721A8027
:102120000020E9E72DE9F04F87B081460C4637489B
:1021300006903748059037480490374803901CB9FB
:10214000012007B0BDE8F08F4846FEF713F982463C
:102150003249FEF79FF880463149FEF7CDF8054633
:1021600029463048FEF790F880464FF07E51FEF742
:102170001FF901D80120E4E729462A48FEF784F830
:10218000804629462148FEF785F882464146FEF7FB
:10219000B3F8064600213046FEF70AF901D80120BF
:1021A000CFE71A493046FEF7A7F8019003F0E4FBA9
:1021B00083461749FEF7A0F81B490290FEF712F874
:1021C000824651464FF07E50FEF796F880461249FF
:1021D000FEF75AF8074600213846FEF7F3F802D812
:1021E0004FF07C5001E04FF03F4082460F493846A7
:1021F000FEF750F883465146FDF7F4FF8046FEF7A0
:10220000BEF800B2208000209BE7000000401C4682
:102210000040534533139543339388430000BF4335
:1022200000007A4400404E450FCF5B3B0000204148
:102230003EB50446002002900190009000250CB9A4
:1022400001203EBD02A9502001F034F908B102205E
:10225000F7E701A9592001F02DF908B10320F0E7B3
:102260006946512001F026F908B10420E9E79DF8FC
:10227000080000F00C0040009DF8041000EB511520
:1022800005F26D1020809DF8000040B260800020B3
:10229000D7E7000070B5002500240DE0084A115D65
:1022A000084A105D01F0DCFA05461DB104F1140086
:1022B000C0B270BD601CC4B20A2CEFD30020F8E796
:1022C000066B0008FC6A0008F8B505460F4616467E
:1022D0002946082001F0C4FA04460CB10120F8BDDB
:1022E000052003F0A1FA6946082001F0E3F804464E
:1022F0000CB10B20F3E79DF80000A84201D0152097
:10230000EDE73946092001F0ABFA04460CB1022092
:10231000E5E7052003F088FA6946092001F0CAF8CC
:1023200004460CB10C20DAE79DF80000B84201D059
:102330001620D4E731460A2001F092FA04460CB187
:102340000320CCE7052003F06FFA69460A2001F06C
:10235000B1F804460CB10D20C1E79DF80000B04271
:1023600001D01720BBE70020B9E7000010B50446F4
:1023700004B910BD16A002F0BFFF217818A002F02A
:10238000BBFFE07820B1E1781BA002F0B5FF02E0CE
:102390001FA002F0B1FF617923A002F0ADFF6178C8
:1023A00027A002F0A9FF207920B121792AA002F00C
:1023B000A3FF02E02EA002F09FFFA17932A002F05D
:1023C0009BFFA17836A002F097FF00BFD1E7000085
:1023D0005B416C61726D20466C6167735D0D0A0034
:1023E00055565F464C414720202020202020203D8C
:1023F0002025640D0A00000055565F4D494E5F438D
:1024000048414E4E454C203D20564325640D0A0060
:1024100055565F4D494E5F4348414E4E454C203D19
:10242000204E4F4E450D0A0055565F434F554E54B2
:10243000202020202020203D2025640D0A000000BF
:102440004F565F464C414720202020202020203D31
:102450002025640D0A0000004F565F4D41585F4330
:1024600048414E4E454C203D20564325640D0A0000
:102470004F565F4D41585F4348414E4E454C203DBD
:10248000204E4F4E450D0A004F565F434F554E5458
:10249000202020202020203D2025640D0A0000005F
:1024A000444946465F464C41472020202020203D9D
:1024B0002025640D0A00000010B504460DA002F0AE
:1024C0001BFF218811A002F017FF618814A002F001
:1024D00013FFA18817A002F00FFFE1881AA002F0F5
:1024E0000BFF21891DA002F007FF618921A002F0E6
:1024F00003FF10BD0D0A5B43656C6C20537461745F
:102500006973746963735D0D0A00000075765F6519
:102510006E7465725F6D5620203D2025640D0A00A3
:1025200075765F657869745F6D562020203D2025A3
:10253000640D0A006F765F656E7465725F6D56207C
:10254000203D2025640D0A006F765F657869745F11
:102550006D562020203D2025640D0A0064696666C2
:102560005F656E7465725F6D562020203D20256486
:102570000D0A0000646966665F657869745F6D5670
:10258000202020203D2025640D0A0000F8B50546D6
:102590000E4617460CA002F0AFFE00240CE036F801
:1025A000140000900F48035D35F81420015D0EA063
:1025B00002F0A2FE601CC4B2092CF0DB394613A065
:1025C00002F09AFEF8BD00000D0A5B4D6170706567
:1025D000642043656C6C20566F6C74616765735D35
:1025E0000D0A00002B6B0008564325645F524157CB
:1025F000203D203078253034582C20564325645F08
:102600006D56203D2025640D0A0000005041434BCB
:102610005F544F54414C5F6D56203D20256C750D25
:102620000A00000070B505460E46144604B970BD98
:102630000CA002F061FE29460FA002F05DFE3146BB
:1026400013A002F059FE217817A002F055FE617820
:102650001CA002F051FEA17821A002F04DFE00BFA7
:10266000E5E700005B42414C414E43452041555453
:102670004F5D0D0A0000000042414C5F4143544948
:102680005645202020202020203D2025640D0A00D2
:1026900042414C5F5441524745545F4C4142454C86
:1026A000203D2025640D0A0043454C4C42414C31ED
:1026B0002020202020202020203D2030782530326E
:1026C000580D0A0043454C4C42414C3220202020FA
:1026D00020202020203D203078253032580D0A005F
:1026E00043454C4C42414C332020202020202020C8
:1026F000203D203078253032580D0A0010B50446B0
:1027000013A002F0F9FD217819A002F0F5FD61781F
:102710001DA002F0F1FDA17821A002F0EDFDE1780D
:1027200025A002F0E9FD217929A002F0E5FD6179FB
:102730002DA002F0E1FDA17931A002F0DDFDE179EB
:1027400034A002F0D9FD217A37A002F0D5FD10BDEA
:102750000D0A5B4251373639343020426173696368
:10276000205265676973746572735D0D0A0000001D
:102770005359535F5354415420203D203078253025
:1027800032580D0A000000005359535F4354524C15
:1027900031203D203078253032580D0A00000000ED
:1027A0005359535F4354524C32203D2030782530EA
:1027B00032580D0A0000000050524F544543543126
:1027C00020203D203078253032580D0A00000000CE
:1027D00050524F544543543220203D20307825300C
:1027E00032580D0A0000000050524F5445435433F4
:1027F00020203D203078253032580D0A000000009E
:102800004F565F5452495020203D203078253032B9
:10281000580D0A0055565F5452495020203D203033
:1028200078253032580D0A0043435F434647202045
:1028300020203D203078253032580D0A000000005D
:1028400070B504460D460EA002F056FD218812A078
:1028500002F052FDA17916A002F04EFD61881BA086
:1028600002F04AFDE1791FA002F046FDA18824A0F4
:1028700002F042FD294628A002F03EFD70BD000096
:102880000D0A5B43656C6C205374617469737469E1
:1028900063735D0D0A00000056435F4D41585F6D44
:1028A0005620202020202020203D2025640D0A00D5
:1028B00056435F4D41585F4348414E4E454C2020A2
:1028C000203D20564325640D0A00000056435F4D0D
:1028D000494E5F6D5620202020202020203D2025BD
:1028E000640D0A0056435F4D494E5F4348414E4ECA
:1028F000454C2020203D20564325640D0A00000051
:1029000056435F444946465F6D56202020202020D4
:10291000203D2025640D0A005041434B5F544F5425
:10292000414C5F6D56202020203D20256C750D0AFE
:10293000000000002DE9FC5F82460C4615461F464C
:10294000DDE90CB804B10DB9BDE8FC9F002F01DB37
:102950003E4600E07E4246A002F0CEFC514649A031
:1029600002F0CAFC2288A1794AA002F0C5FC628864
:10297000E1794DA002F0C0FCA18850A002F0BCFC9F
:1029800052A002F0B9FC002F11DA4FF47A7096FBD6
:10299000F0F100FB116001904FF47A7096FBF0F0BB
:1029A000009001464BA0019A02F0A6FC10E04FF403
:1029B0007A7096FBF0F100FB116001904FF47A7091
:1029C00096FBF0F00090014646A0019A02F094FCBC
:1029D000BBF1000F03DD46A002F08EFC09E0BBF165
:1029E000000F03DA45A002F087FC02E047A002F0E6
:1029F00083FC4AA002F080FCB8F1000F13DAC8F1A2
:102A000000000FFA80F90A2099FBF0F100FB119009
:102A100001900A2099FBF0F00090014641A0019A34
:102A200002F06AFC0EE00A2098FBF0F100FB118036
:102A300001900A2098FBF0F0009001463CA0019A1A
:102A400002F05AFCA87AE979CDE90010AB786A78EF
:102A500029783AA002F050FCDDE91101CDE900012E
:102A600041480EA90EC902F047FC00BF6CE7000008
:102A70005B4359434C452053554D4D4152595D0DD3
:102A80000A0000005041434B203D20256C75206D0D
:102A9000560D0A00564D4158203D20564325753AA3
:102AA0002575206D560D0A00564D494E203D205685
:102AB0004325753A2575206D560D0A004449464652
:102AC000203D202575206D560D0A0000492020204C
:102AD000203D20002D256C642E2530336C64204170
:102AE00000000000256C642E2530336C642041000A
:102AF00020204348415247450D0A00002020444908
:102B0000534348415247450D0A00000020204E45DE
:102B100041525F5A45524F0D0A00000054202020B8
:102B2000203D20002D25642E256420430D0A000041
:102B300025642E256420430D0A000000414C4D20E1
:102B4000203D2055563A2575204F563A257520448C
:102B50004946463A2575204F543A25752055543A32
:102B600025750D0A00000000F06B00082DE9F0410A
:102B700004460CB9BDE8F08115A002F0BDFBB4F924
:102B80000C0000280FDAA089404205B20A2095FB0C
:102B9000F0F100FB115695FBF0F73246394611A0D3
:102BA00002F0AAFB0DE0B4F90C000A2190FBF1F24F
:102BB00001FB120690FBF1F7324639460FA002F0F6
:102BC0009BFBA17A13A002F097FB00BFD2E70000A5
:102BD0005B4C4F572054454D5020414C41524D5D68
:102BE0000D0A00005453315F54454D50203D202DB7
:102BF00025642E256420430D0A0000005453315FE4
:102C000054454D50203D2025642E256420430D0A57
:102C10000000000055545F464C414720203D2025D0
:102C2000640D0A002DE9F04704460D4617460026BC
:102C30000CB9BDE8F087002D01DB2E4600E06E42A6
:102C400024A002F059FB217825A002F055FB617801
:102C500028A002F051FB61882BA002F04DFBB4F9D3
:102C600004102EA002F048FB30A002F045FB2946DC
:102C700033A002F041FB002D0DDA4FF47A7096FB81
:102C8000F0F100FB116896FBF0F94246494631A08D
:102C900002F032FB0CE04FF47A7096FBF0F100FB8F
:102CA000116896FBF0F94246494631A002F024FB38
:102CB000002F03DD35A002F01FFB08E0002F03DA30
:102CC00038A002F019FB02E03CA002F015FB00BFA7
:102CD000AFE700005B4343205241575D0D0A0000FF
:102CE00043435F484920203D203078253032580D3D
:102CF0000A00000043435F4C4F20203D20307825E0
:102D00003032580D0A00000043435F553136203DF4
:102D1000203078253034580D0A00000043435F53BB
:102D20003136203D2025640D0A0000005B504143F0
:102D30004B2043555252454E545D0D0A0000000091
:102D400043555252454E545F6D41203D20256C64E1
:102D50000D0A000043555252454E545F4120203D1C
:102D6000202D256C642E2530336C640D0A00000084
:102D700043555252454E545F4120203D20256C64FE
:102D80002E2530336C640D0A0000000043435F447D
:102D90004952203D20434841524745282B290D0ADE
:102DA0000000000043435F444952203D2044495302
:102DB000434841524745282D290D0A0043435F44AB
:102DC0004952203D204E4541525F5A45524F0D0A0F
:102DD000000000002DE9F04106460F4615469846D2
:102DE00006B10DB9BDE8F08131460EA002F084FABB
:102DF0003A4631460DA002F07FFA00240DE005EBC3
:102E0000C400007947FA00F000F0010255F83410D0
:102E10000AA002F071FA601CC4B24445EFDB00BFA7
:102E2000E0E700005B25735D0D0A00002573203D7F
:102E3000203078253032580D0A000000252D31321F
:102E400073203D2025640D0A0000000010B50446E3
:102E50000523034A214603A0FFF7BCFF10BD000075
:102E6000D46A00085359535F4354524C3200000057
:102E700010B504460723034A214603A0FFF7AAFF23
:102E800010BD00009C6A00085359535F53544154CD
:102E9000000000002DE9F04106460C46002C15DA32
:102EA000604205B214A002F027FA314616A002F0E3
:102EB00023FA0A2095FBF0F100FB115795FBF0F87F
:102EC0003A46414614A002F017FA12E00AA002F0B6
:102ED00013FA31460CA002F00FFA0A2094FBF0F12D
:102EE00000FB114794FBF0F83A46414610A002F06F
:102EF00003FABDE8F08100005B5453312054454D86
:102F0000505D0D0A000000005241575F41444320CC
:102F10003D2025750D0A000054454D5020202020ED
:102F20003D202D25642E256420430D0A000000005D
:102F300054454D50202020203D2025642E2564201E
:102F4000430D0A002DE9F04104460CB9BDE8F081BB
:102F500015A002F0D1F9B4F9080000280FDA208991
:102F6000404205B20A2095FBF0F100FB115695FB9B
:102F7000F0F73246394610A002F0BEF90DE0B4F980
:102F800008000A2190FBF1F201FB120690FBF1F719
:102F9000324639460EA002F0AFF9E17912A002F0F4
:102FA000ABF900BFD2E700005B54454D5020414CC7
:102FB00041524D5D0D0A00005453315F54454D5050
:102FC000203D202D25642E256420430D0A0000009D
:102FD0005453315F54454D50203D2025642E2564C7
:102FE00020430D0A000000004F545F464C4147202B
:102FF000203D2025640D0A0070B506460D4606B139
:103000000DB9012070BDFFF745F904460CB10B2046
:10301000F8E7304600F085F904460CB10C20F1E7E2
:103020002846FFF705F904460CB10D20EAE7002019
:10303000E8E7024609B90120704702F00F00087066
:103040000020F9E72DE9F04704460D4617460CB17C
:1030500005B117B90120BDE8F087B5F9022029882C
:103060002088FFF70DF88046B5F90220298860888E
:10307000FFF721F8814614A002F03EF9218842466C
:1030800017A002F039F961884A461FA002F034F90E
:1030900020794A464146FFF717F906460EB115203A
:1030A000D9E723A002F028F9052002F0BDFB38463D
:1030B00000F037F906460EB11620CCE725A002F045
:1030C0001BF90020C7E700000D0A5B50726F7465A2
:1030D0006374696F6E2043616C635D0D0A000000CC
:1030E0004F5620746172676574203D2025646D56CB
:1030F000202D3E204F565F54524950203D203078BD
:10310000253032580D0A00005556207461726765EB
:1031100074203D2025646D56202D3E2055565F5469
:10312000524950203D203078253032580D0A000099
:10313000425137363934305F4C6F616450726F746E
:10314000656374696F6E506172616D73206F6B2E71
:103150000D0A000077726974652073756363657387
:1031600073207265616420425137363934305F52C2
:10317000656164426173696352656773206F6B2E8A
:103180000D0A00002DE9F04104460D4614B9012056
:10319000BDE8F081207800F00301677861F3DF0774
:1031A000A07800F00701E67861F31F163946062083
:1031B00000F056FB08B10220EAE73146072000F094
:1031C0004FFB08B10320E3E70DB1EF702E71002033
:1031D000DEE7000010B504460DA002F08DF8214690
:1031E00010A002F089F8C4F3C00113A002F084F823
:1031F000C4F3800114A002F07FF804F0010116A0CE
:1032000002F07AF8C4F3400117A002F075F810BD7F
:103210005B4857204641554C542053544154555314
:103220005D0D0A005359535F53544154203D2030E3
:1032300078253032580D0A0048575F555620202017
:10324000203D2025640D0A0048575F4F562020205E
:10325000203D2025640D0A0048575F4F434420203D
:10326000203D2025640D0A0048575F534344202029
:10327000203D2025640D0A0070B505460C46284601
:10328000FFF7F6FD2046FFF7E1FD70BD10B50446DF
:103290000CB9012010BD2146002000F00BF908B147
:1032A0000220F7E70020F5E770B506460D4606B1A7
:1032B0000DB9012070BD304600F00FF904460CB185
:1032C0000B20F7E7284600F001F904460CB10C206A
:1032D000F0E70020EEE72DE9F04105460E461746DF
:1032E0004FF000080DB106B117B90120BDE8F0811B
:1032F000002412E007EB440306EB4402611CC8B251
:10330000294600F09DF88046B8F1000F03D004F183
:103310000A00C0B2EAE7601CC4B2092CEADB002054
:10332000E4E710B504460CB9012010BD2146002089
:1033300000F0C0F808B10B20F7E7611C042000F092
:10334000B9F808B10C20F0E7A11C052000F0B2F894
:1033500008B10D20E9E7E11C062000F0ABF808B148
:103360000E20E2E7211D072000F0A4F808B10F208D
:10337000DBE7611D082000F09DF808B11020D4E7BC
:10338000A11D092000F096F808B11120CDE7E11D3C
:103390000A2000F08FF808B11220C6E704F10801F6
:1033A0000B2000F087F808B11320BEE70020BCE72F
:1033B00070B505460C460CB9012070BD2146284663
:1033C00000F078F8F9E710B504460CB9012010BDFB
:1033D0002146012000F06EF808B10220F7E7611CD9
:1033E000022000F067F808B10220F0E7A11C0320DA
:1033F00000F060F808B10220E9E70020E7E77CB5BB
:1034000006460D4614460020019000900CB901209C
:103410007CBD01A9304600F04DF808B10220F7E765
:103420006946284600F046F808B10320F0E79DF809
:1034300000009DF8041040EA012020800020E7E70A
:103440002DE9F84304460F4615461E464FF0000886
:1034500000200090012C01DB092C02DD0120BDE8D9
:10346000F8830FB105B10EB90220F8E7621E0F4BC9
:10347000995C0F4B985C6A46FFF7C1FF8046B8F134
:10348000000F01D00320EAE732463946BDF80000BC
:10349000FEF72BFE8046B8F1000F01D00420DEE7D6
:1034A000BDF8000028800020D9E70000196B000853
:1034B000106B000870B505460C460CB9012070BDB4
:1034C00022462946082001F005FDF8E710B504461C
:1034D00021460520FFF76CFF10BD10B504462146BC
:1034E0000020FFF765FF10BD1CB5044600200190C9
:1034F00000900CB901201CBD01A92C20FFF7DAFFB8
:1035000008B10220F7E769462D20FFF7D3FF08B185
:103510000220F0E79DF800009DF8041040EA012029
:1035200020800020E7E738B50446012C01D90120AE
:1035300038BD69460520FFF7BDFF08B10220F7E757
:103540002CB19DF8000040F00100009004E09DF8CF
:10355000000000F0FE0000909DF80010052000F033
:103560007FF908B10220E3E70020E1E738B504461F
:10357000012C01D9012038BD69460520FFF79AFFCB
:1035800008B10220F7E72CB19DF8000040F00200DE
:10359000009004E09DF8000000F0FD0000909DF810
:1035A0000010052000F05CF908B10220E3E70020DC
:1035B000E1E738B504460D46012C01D8012D01D9AB
:1035C000012038BD69460520FFF774FF08B10220CD
:1035D000F7E72CB19DF8000040F00100009004E0F6
:1035E0009DF8000000F0FE0000902DB19DF8000055
:1035F00040F00200009004E09DF8000000F0FD00A3
:1036000000909DF80010052000F02AF908B1022072
:10361000D7E70020D5E700002DE9F04704460D4626
:1036200014B10DB102B113B90120BDE8F08700203B
:1036300000264FF6FF7784464FF00108002123E073
:1036400034F81190B2F800A0D14503DA00F1010975
:1036500009F0FF0034F81190B2F802A0D1450FDA5A
:1036600006F1010909F0FF064FF0000834F8119047
:10367000B94505DA34F81170DFF84C9119F801C03A
:1036800001F1010909F0FF010929D9DB93F8009044
:10369000B9F1000F0BD1002804DD4FF0010983F8C8
:1036A000009010E04FF0000983F800900BE0B8F1B3
:1036B000010F04D14FF0000983F8009003E04FF0B0
:1036C000010983F8009093F80090B9F1010F03D13C
:1036D0005E7183F803C005E04FF0000983F80590A0
:1036E00083F8039000200026002784464FF001084D
:1036F000002123E034F81190B2F804A0D14503DD95
:1037000000F1010909F0FF0034F81190B2F806A0A9
:10371000D1450FDD06F1010909F0FF064FF0000861
:1037200034F81190B94505DD34F81170DFF8989040
:1037300019F801C001F1010909F0FF010929D9DBDC
:1037400093F80190B9F1000F0BD1002804DD4FF080
:10375000010983F8019010E04FF0000983F801900F
:103760000BE0B8F1010F04D14FF0000983F801908C
:1037700003E04FF0010983F8019093F80190B9F14B
:10378000010F03D19E7183F804C005E04FF00009DA
:1037900083F8069083F80490987848B9A888168929
:1037A000B04202DD012098700BE00020987008E024
:1037B000A8885689B04202DA0020987001E0012002
:1037C0009870002031E70000346B0008034601B117
:1037D0000AB9012070479381907A30B9B1F910008D
:1037E000984208DB0120907205E0B1F9120098427E
:1037F00001DC002090720020ECE7034601B10AB919
:10380000012070471381D07930B9B1F90C0098428A
:1038100008DC0120D07105E0B1F90E00984201DB0F
:103820000020D0710020ECE710B504460CB901204F
:1038300010BD2178012000F013F808B10220F7E74D
:103840006178022000F00CF808B10220F0E7A178BE
:10385000032000F005F808B10220E9E70020E7E7BF
:1038600038B504460D4610208DF800008DF8014053
:103870008DF80250072203216846FEF7DFFB8DF822
:10388000030001F0D5FB9DF8000001F0ADFB01F055
:10389000F9FB18B101F0E1FB012038BD9DF80100F2
:1038A00001F0A2FB01F0EEFB18B101F0D6FB022003
:1038B000F3E79DF8020001F097FB01F0E3FB18B17C
:1038C00001F0CBFB0320E8E79DF8030001F08CFB3F
:1038D00001F0D8FB18B101F0C0FB0420DDE701F0D6
:1038E000BCFB0A2001F0A0FF0020D6E710B50122A2
:1038F0001102024800F00CFD10BD0000000801405C
:1039000010B500224FF48071014800F001FD10BD98
:103910000008014010B5FFF7E9FF642001F084FFC3
:10392000FFF7EEFF142001F07FFF10BD00BFFEE7A0
:1039300000B58BB000202749087027482749086048
:103940000021264881600420244948600021234842
:10395000C1604FF44021016189004161002101767D
:10396000417681760121C17600210177417700F00F
:10397000FFF928B11AA001F0BFFC01200BB000BD77
:1039800000200690079001200890002001900290EE
:10399000039004900590012009900E200A9001A93F
:1039A0000E4800F045F920B114A001F0A5FC02205A
:1039B000E4E70A4800F0DAFA20B119A001F09CFC13
:1039C0000320DBE70120034908701CA001F094FCF0
:1039D0000020D3E704000020006400402401002000
:1039E0005B43414E5D2048414C5F43414E5F496E11
:1039F0006974206661696C0D0A0000005B43414EEA
:103A00005D2048414C5F43414E5F436F6E6669677E
:103A100046696C746572206661696C0D0A0000006D
:103A20005B43414E5D2048414C5F43414E5F5374C0
:103A3000617274206661696C0D0A00005B43414E3F
:103A40005D20696E6974206F6B2C20626175642043
:103A50003D203530306B6270730D0A0001480078EC
:103A60007047000004000020F0B587B004460D4602
:103A700016461A48007810B9012007B0F0BD0DB9FC
:103A80000220FAE7B4F5006F01D30320F5E7082E12
:103A900001D90420F1E701940020029003900490E2
:103AA00005968DF8180000F039FC074606E000F096
:103AB00035FCC01B0A2801D90520DEE7084800F0C4
:103AC0003CF90028F3D06B462A4601A9044800F0CF
:103AD0000AF808B10620D0E70020CEE70400002055
:103AE000240100207047F0B504460D461E4694F8A8
:103AF000207020688368A86800B900E000BF012F2B
:103B000001D0022F7DD103F0806030B903F0006056
:103B100018B903F0805000287ED0C3F30161012062
:103B200088403060A86860B9B5F800C0E86840EA2D
:103B30004C5C206800F5C07000EB0110C0F800C0BC
:103B40000FE0D5E901C040EACC00D5F80CC040EA4E
:103B50000C00D4F800C00CF5C07C0CEB011CCCF8B8
:103B60000000D5F810C0206800F5C07000EB01100F
:103B7000C0F804C0287D01280ED1206800F5C0706F
:103B800000EB0110406840F4807C206800F5C070B4
:103B900000EB0110C0F804C0D079000692F806C00E
:103BA00040EA0C4092F805C040EA0C2092F804C0AC
:103BB00040EA0C00D4F800C00CF5C07C0CEB011CF2
:103BC000CCF80C00D078000692F802C040EA0C4015
:103BD00092F801C040EA0C2092F800C040EA0C00C4
:103BE000D4F800C00CF5C07C0CEB011CCCF808002C
:103BF000206800F5C07000EB0110006840F0010C77
:103C000001E00FE008E0206800F5C07000EB011053
:103C1000C0F800C00020F0BD606A40F4001060628F
:103C20000120F8E7606A40F4802060620120F2E73A
:103C3000F0B504460A46216894F82050012D01D0C1
:103C4000022D74D1D1F8000240F00100C1F8000249
:103C5000107D00F01F06012000FA06F3D1F81C02C7
:103C60009843C1F81C02D069C8B9D1F80C02984336
:103C7000C1F80C02908880B2968940EA064601F5A8
:103C80001070576940F83760108880B2168940EA92
:103C9000064601F51070576900EBC7004660D06911
:103CA000012819D1D1F80C021843C1F80C029088F0
:103CB00080B2168840EA064601F51070576940F850
:103CC0003760908980B2168940EA064601F5107087
:103CD000576900EBC7004660906928B9D1F8040223
:103CE0009843C1F8040204E0D1F804021843C1F873
:103CF0000402106928B9D1F814029843C1F81402DB
:103D000004E0D1F814021843C1F81402106A012823
:103D100004D1D1F81C021843C1F81C02D1F80002EA
:103D200020F00100C1F800020020F0BDFFE7606A4A
:103D300040F4802060620120F7E70146002091F8FE
:103D40002020012A01D0022A11D10B689B6803F0C0
:103D5000806303B1401C0B689B6803F0006303B1F0
:103D6000401C0B689B6803F0805303B1401C7047F4
:103D700070B504460CB9012070BD94F8200010B94C
:103D8000204600F0AFF82068006840F0010021688C
:103D9000086000F0C3FA05460DE000F0BFFA401BD2
:103DA0000A2808D9606A40F400306062052084F86F
:103DB00020000120E0E72068406800F001000028B2
:103DC000EBD02068006820F002002168086000F055
:103DD000A5FA05460DE000F0A1FA401B0A2808D913
:103DE000606A40F400306062052084F82000012001
:103DF000C2E72068406800F002000028EBD1207E76
:103E0000012806D12068006840F080002168086021
:103E100005E02068006820F0800021680860607E6E
:103E2000012806D12068006840F040002168086041
:103E300005E02068006820F0400021680860A07E4E
:103E4000012806D12068006840F020002168086041
:103E500005E02068006820F0200021680860E07E0E
:103E6000012806D12068006820F010002168086051
:103E700005E02068006840F0100021680860207F9D
:103E8000012806D12068006840F008002168086019
:103E900005E02068006820F0080021680860607F65
:103EA000012806D12068006840F0040021680860FD
:103EB00005E02068006820F0040021680860D4E96B
:103EC0000201084321690843616908436168491E8A
:103ED00008432168C86100206062012084F8200046
:103EE000002049E710B586B00446002002900390F8
:103EF000049005901A49206888422FD100BF1948C4
:103F0000806940F00400174988610846806900F024
:103F10000400019000BF00BF00BF0846C06940F028
:103F20000070C8610846C06900F00070019000BFD1
:103F300000BF88140290022003900320059002A97C
:103F4000094800F043F84FF400600290002003900D
:103F50000120049002A9044800F038F806B010BD12
:103F600000640040001002400008014070B50446A3
:103F700094F82000012822D1022084F82000206833
:103F8000006820F001002168086000F0C7F90546CC
:103F90000DE000F0C3F9401B0A2808D9606A40F41C
:103FA00000306062052084F82000012070BD206888
:103FB000406800F001000028EBD16062F6E7606A1B
:103FC00040F4002060620120F0E700002DE9F8478E
:103FD0000346002294466EE14FF0010808FA02F40D
:103FE000D1F8008008EA0400A0427DD1DFF8DCA20D
:103FF000D1F80480A8EB0A09D0453AD014DCB8F116
:10400000030F50D009DCB8F1000F31D0B8F1010F27
:104010001CD0B8F1020F49D120E0B8F1110F18D02F
:10402000B8F1120F42D11EE0B9F5881F25D006DC89
:10403000B9F5803F20D0B9F5801F37D11AE0B9F526
:10404000001F18D0B9F5041F30D117E0D1F80CC00B
:104050002DE0D1F80C8008F1040C28E0D1F80C8098
:1040600008F1080C23E0D1F80C8008F10C0C1EE0DC
:1040700000BF00BF00BF00BF00BF00BFD1F8088075
:10408000B8F1000F02D14FF0040C0BE0D1F808801A
:10409000B8F1010F03D14FF0080C1C6102E04FF0A2
:1040A000080C5C6103E04FF0000C00E000BF00BFB3
:1040B000FF2801D8984601E003F104084646FF288E
:1040C00002D84FEA820803E0A2F108084FEA880804
:1040D0004746D6F800804FF00F0909FA07F928EA99
:1040E00009080CFA07F900E088E048EA0908C6F870
:1040F0000080D1F8048008F08058B8F1805F7DD14D
:1041000000BFDFF8CC81D8F8188048F00108DFF84C
:10411000C091C9F81880C846D8F8188008F001087E
:10412000CDF8008000BF00BF4FEAB9384FEA9209CE
:1041300058F829504FEA82784FEA18794FF00F0863
:1041400008FA09F825EA0805DFF88881434502D115
:104150004FF0000816E0DFF88081434502D14FF0B0
:1041600001080FE0DFF87481434502D14FF00208E7
:1041700008E0DFF86C81434502D14FF0030801E00D
:104180004FF004084FEA82794FEA197908FA09F8E2
:1041900048EA0505DFF84C814FEA920948F82950B2
:1041A000D1F8048008F48018B8F5801F0AD1DFF830
:1041B0003881D8F8008048EA0008DFF82C91C9F867
:1041C000008009E0DFF82081D8F8008028EA0008A4
:1041D000DFF81491C9F80080D1F8048008F40018C1
:1041E000B8F5001F10D1DFF8008108F10408D8F8F5
:1041F000008048EA0008DFF8F09000E05AE009F19A
:104200000409C9F800800DE0DFF8DC8008F104083B
:10421000D8F8008028EA0008DFF8CC9009F10409FA
:10422000C9F80080D1F8048008F40038B8F5003FE0
:104230000ED1DFF8B480A8F10408D8F8008048EA6D
:104240000008DFF8A490A9F10409C9F800800DE086
:10425000DFF89480A8F10408D8F8008028EA000864
:10426000DFF88490A9F10409C9F80080D1F804802E
:1042700008F48038B8F5803F0ED1DFF86C80A8F1E3
:104280000808D8F8008048EA0008DFF85C90A9F137
:104290000809C9F800800DE0DFF84C80A8F1080893
:1042A000D8F8008028EA0008DFF83C90A9F1080956
:1042B000C9F80080521CD1F8008028FA02F8B8F141
:1042C000000F7FF489AEBDE8F887000000001110F0
:1042D0000010024000080140000C014000100140A5
:1042E00000140140080001400804014002469368A0
:1042F0000B400BB1012000E00020704710B5C268F0
:1043000021EA020302EA010443EA0443036110BD07
:104310000AB1016101E00B040361704701480068C4
:1043200070470000680000200348006803490978CE
:1043300008440149086070476800002070000020B0
:1043400010B50848006840F01000064908600320D6
:1043500000F080F80F2000F007F800F02BF80020A4
:1043600010BD00000020024070B504460E480078E1
:104370004FF47A71B1FBF0F00C490968B1FBF0F52C
:10438000284600F0D1FB08B1012070BD102C07D2E7
:1043900000222146501E00F01EF80548046001E08E
:1043A0000120F2E70020F0E770000020000000206C
:1043B0006C000020704701460846002809DB00F029
:1043C0001F0301229A4043099B0003F1E023C3F835
:1043D000002100BF70472DE9F05F80460D4616466C
:1043E000002700F099FF074639462A46334601F078
:1043F0000700C0F1070ABAF1040F02D94FF0040A0E
:1044000001E0C0F1070AD14600F1040ABAF1070F32
:1044100002D24FF0000A01E0A0F1030AD4464FF0A7
:10442000010A0AFA09FAAAF1010A0AEA020A0AFAD0
:104430000CFA4FF0010B0BFA0CFBABF1010B0BEA82
:10444000030B4AEA0B042146404600F06DFFBDE82D
:10445000F09F000000BF00F00702064B19684FF6FE
:10446000FF031940044B0B4343EA0221014B19603F
:1044700000BF70470CED00E00000FA0570B504467F
:104480000D460CB9012070BD5A48006800F00700C5
:10449000A8420ED25748006820F00700284355492B
:1044A00008600846006800F00700A84201D001201B
:1044B000E9E7207800F0020002281DD1207800F002
:1044C0000400042805D14C48406840F4E0604A49A3
:1044D0004860207800F00800082805D14648406868
:1044E00040F46050444948604348406820F0F00080
:1044F000A168084340494860207800F0010078B383
:104500006068012806D13C48006800F4003090B98A
:104510000120B8E76068022806D13748006800F03B
:10452000007040B90120AEE73348006800F0020097
:1045300008B90120A7E73048406820F0030061680F
:1045400008432D494860FFF7E9FE064609E0FFF7FA
:10455000E5FE801B41F28831884202D9032092E7B0
:1045600007E02548406800F00C006168B0EB810F5F
:10457000EDD12048006800F00700A8420ED91D4880
:10458000006820F0070028431A49086008460068C0
:1045900000F00700A84201D0012074E7207800F065
:1045A0000400042807D11448406820F4E060E16862
:1045B000084311494860207800F00800082808D115
:1045C0000D48406820F46050216940EAC1000A4962
:1045D000486000F03FF808494968C1F30311074AF1
:1045E000515CC8400649086006480068FFF7BCFEF9
:1045F000002048E70020024000100240846A0008C2
:10460000000000206C000020014800687047000096
:104610000000002000B5FFF7F7FF04494968C1F327
:104620000221034A515CC84000BD00000010024056
:10463000946A000800B5FFF7E7FF04494968C1F331
:10464000C221034A515CC84000BD00000010024076
:10465000946A000870B50021002200240023002085
:10466000134D696801F00C05F5B1042D02D0082D39
:1046700019D101E00F4819E00F4DC1F38346AB5D3E
:1046800001F4803555B10A4D6D68C5F340450B4EB8
:10469000725D084D5D43B5FBF2F402E0084D03FB8B
:1046A00005F4204602E000BF024800BF00BF70BD15
:1046B0000010024000127A003D6B00084D6B0008AC
:1046C00000093D00F8B504460CB90120F8BD20787A
:1046D00000F00100002878D0F848406800F00C0095
:1046E00004280CD0F548406800F00C00082811D1CF
:1046F000F248406800F48030B0F5803F0AD1EF48BE
:10470000006800F4003000285FD0606800285CD1A9
:104710000120DBE700BF6068B0F5803F06D1E748C5
:10472000006840F48030E549086028E0606858B9C6
:10473000E248006820F48030E049086008460068DC
:1047400020F4802008601AE06068B0F5A02F0BD13B
:10475000DA48006840F48020D849086008460068BC
:1047600040F4803008600AE0D448006820F48030CB
:10477000D24908600846006820F48020086000BF25
:10478000606888B1FFF7CAFD054606E0FFF7C6FD81
:10479000401B642801D9032098E7C848006800F44A
:1047A00000300028F2D010E0FFF7B8FD054606E023
:1047B000FFF7B4FD401B642801D9032086E7BF48FA
:1047C000006800F400300028F2D1207800F00200E8
:1047D000022857D1B948406800F00C0050B1B748E2
:1047E000406800F00C00082818D1B448406800F474
:1047F000803098B9B148006800F0020020B120690B
:10480000012801D0012061E7AC48006820F0F800E1
:10481000616940EAC100A949086033E02069E8B154
:104820000120A7490860FFF779FD054606E0FFF77C
:1048300075FD401B022801D9032047E79F48006807
:1048400000F002000028F2D09C48006820F0F80038
:10485000616940EAC1009949086013E00020984965
:104860000860FFF75BFD054606E0FFF757FD401BBC
:10487000022801D9032029E79048006800F00200CF
:104880000028F2D1207800F0080008282DD1A06976
:10489000B8B101208B490860FFF740FD054606E0EE
:1048A000FFF73CFD401B022801D903200EE7834897
:1048B000406A00F002000028F2D0012000F074FAF3
:1048C00013E000207F490860FFF728FD054606E059
:1048D000FFF724FD401B022801D90320F6E67748A4
:1048E000406A00F002000028F2D1207800F00400B5
:1048F000042873D100277148C06900F0805070B956
:1049000000BF6E48C06940F080506C49C8610846DD
:10491000C06900F08050009000BF00BF01276A48C6
:10492000006800F48070B0B96748006840F4807097
:1049300065490860FFF7F2FC054606E0FFF7EEFC6C
:10494000401B642801D90320C0E65F48006800F4DA
:1049500080700028F2D000BFE068012806D15748D7
:10496000006A40F001005549086227E0E06858B944
:104970005248006A20F00100504908620846006A67
:1049800020F00400086219E0E06805280BD14B48CC
:10499000006A40F00400494908620846006A40F095
:1049A000010008620AE04548006A20F0010043491E
:1049B00008620846006A20F00400086200BFE06850
:1049C000A0B1FFF7ABFC054609E0FFF7A7FC401BD1
:1049D00041F28831884202D9032077E622E0374845
:1049E000006A00F002000028EFD012E0FFF796FC0A
:1049F000054608E0FFF792FC401B41F288318842EF
:104A000001D9032062E62D48006A00F00200002868
:104A1000F0D1012F05D12948C06920F080502749E5
:104A2000C86100BFE069C8B32448406800F00C00CA
:104A3000082860D0E069022848D100202049086693
:104A4000FFF76CFC054606E0FFF768FC401B0228F8
:104A500001D903203AE61948006800F000700028E8
:104A6000F2D1206AB0F5803F07D11448406820F4A5
:104A70000030A168084311494860D4E9080108439F
:104A80000E49496821F4741108430C49486001201B
:104A90000B490866FFF742FC054607E03DE0FFF7DB
:104AA0003DFC401B022801D903200FE603480068A3
:104AB00000F000700028F2D02FE00000001002404B
:104AC000000042428004424200700040002014492D
:104AD0000866FFF723FC054606E0FFF71FFC401BB6
:104AE000022801D90320F1E50E48006800F00070AB
:104AF0000028F2D111E0E069012800D1E6E509487B
:104B0000466806F48031206A814204D106F47011AF
:104B1000606A814201D00120D8E50020D6E500007E
:104B2000000042420010024070B504462546681E4F
:104B3000B0F1807F01D301200FE0681E4FF0E0212B
:104B400048610F214FF0FF3000F0EEFB00204FF0E6
:104B5000E021886107200861002070BD10B504467F
:104B60000CB9012010BDA06900B100E000BF94F8AD
:104B7000410028B9002084F84000204600F02AF8BF
:104B8000242084F841002068C06820F40050216887
:104B9000C860204600F0A4FA2068006920F4904024
:104BA000216808612068406920F02A002168486176
:104BB0002068C06840F400502168C860002060642C
:104BC000202084F8410084F842000020606300BF88
:104BD000C8E7000010B586B0044625492068884221
:104BE00044D100BF2348806940F480402149886156
:104BF0000846806900F48040019000BF00BF00BFFC
:104C00000846806940F0040088610846806900F029
:104C10000400019000BF00BF4815029002200390DD
:104C2000012004900320059002A91348FFF7CEF954
:104C30004FF4806002900020039002A90E48FFF715
:104C4000C5F92520FFF7B7FB022211462520FFF703
:104C5000C2FB2068C06840F020002168C86020685E
:104C6000C06840F010002168C86000BF06B010BDE9
:104C70000038014000100240000801402DE9F84FC3
:104C800004460E46174699464FF0000A94F8420033
:104C900020284FD106B117B90120BDE8F88F0020B8
:104CA0006064222084F8420000202063FFF736FB76
:104CB0008246A785E785A068B0F5805F04D12069AA
:104CC00010B90025B04602E035464FF0000829E053
:104CD0005346002220212046CDF8009000F07EFAB5
:104CE00008B10320D9E745B920684068C0F308003F
:104CF000A8F8000008F1020811E0A068B0F5805F94
:104D000003D0A06828B9206918B9206840682870C5
:104D100004E02068406800F07F0028706D1CE08D82
:104D2000401EE085E08D0028D2D1202084F842008A
:104D30000020B2E70220B0E700BFFEE700B585B073
:104D40000020019002900390049000BF0E488069FB
:104D500040F008000C4988610846806900F00800AE
:104D6000009000BF00BF8815019001200290002034
:104D700003900320049001A90448FFF727F9FEF7E8
:104D8000BFFD05B000BD000000100240000801405A
:104D900000BF00F0ABFD4FF4FA7001F08DFBF8E7B7
:104DA00000BFFEE77047000008B508490968C90858
:104DB0004FF47A72B1FBF2F14143009100BF00BFA2
:104DC00000994A1E00920029F9D108BD0000002078
:104DD00010B500F0C1F800F0F1F800F0E5F802209D
:104DE00000F044FD00F0AEF8052000F03FFD00F0BB
:104DF000B3F810BD00B585B000200190029003907B
:104E0000049000BF1548806940F00800134988618C
:104E10000846806900F00800009000BF00BF8815B8
:104E2000019011200290012003900320049001A919
:104E30000B48FFF7CBF84FF400700190112002905F
:104E4000012003900320049001A90548FFF7BEF854
:104E500000F078F800F08AF805B000BD00100240BC
:104E6000000C014010B500F077F800F0A7F800F052
:104E70007DF8022000F0FAFC00F064F8052000F054
:104E8000F5FC00F069F810BD70B50546002400F08F
:104E900077F8002612E000F05FF8022000F0E6FC50
:104EA00000F050F86006040E00F042F808B1601CF3
:104EB000C4B2052000F0DAFC701CC6B2082EEADB92
:104EC00000F04AF815B1FFF783FF01E0FFF7CAFFD2
:104ED000204670BD70B504460D46164600F0A8F891
:104EE000002141EA4401C8B200F07EF800F0CAF89F
:104EF00008B1012070BD284600F076F800F0C2F835
:104F000008B10220F6E700F093F8012101EB44011B
:104F1000C8B200F069F800F0B5F808B10320E9E77D
:104F20000020FFF7B1FF307000F097F80020E1E7B4
:104F300010B54FF400710248FFF7D8F910BD00001A
:104F4000000C014010B5012211020248FFF7E0F900
:104F500010BD0000000C014010B500224FF480711C
:104F60000148FFF7D5F910BD000C014010B5012232
:104F700051020248FFF7CCF910BD0000000C0140BF
:104F80001FB5002000900190029003904FF4007034
:104F90000090002001900120029069460148FFF72F
:104FA00015F81FBD000C014010B500224FF4007130
:104FB0000148FFF7ADF910BD000C01401FB50020FE
:104FC00000900190029003904FF400700090112027
:104FD0000190012002900320039069460148FEF7EA
:104FE000F5FF1FBD000C014070B50446FFF7E6FF5A
:104FF000FFF7B2FF002518E004F0800010B1FFF7C2
:10500000B5FF01E0FFF7D0FF6006040E022000F0BC
:105010002DFCFFF797FF052000F028FCFFF79CFF11
:10502000022000F023FC681CC5B2082DE4DB70BD33
:1050300010B5FFF7C3FFFFF799FFFFF783FF0520C8
:1050400000F014FCFFF7B0FF052000F00FFCFFF7A5
:1050500083FF052000F00AFC10BD10B5FFF7AEFF7E
:10506000FFF77AFFFFF7A0FF052000F0FFFBFFF737
:1050700069FF052000F0FAFBFFF778FF052000F03C
:10508000F5FB10BD10B50024FFF77AFFFFF76EFFA8
:10509000022000F0EBFBFFF755FF052000F0E6FBD8
:1050A0000AE0601CC4B2642C03DDFFF7D6FF0120C8
:1050B00010BD012000F0DAFBFFF73AFF0028F0D125
:1050C000FFF74AFF0020F3E710B5FFF72DF901F0D5
:1050D0009FFB012801D001F051FB10BD704700007B
:1050E00070B504462168096921F44051E268114312
:1050F000226811612269A1681143626941EA0205CF
:105100002168C96841F20C62914329432268D16049
:105110002168496921F44071A269114322685161F3
:105120002D4A2168914202D1FFF784FA01E0FFF78E
:1051300071FA00EBC00101EB001162689200B1FB53
:10514000F2F100EBC00202EB001263689B00B2FBBD
:10515000F3F26423B2FBF3F202EBC20303EB02129D
:10516000A1EB8201322202EB01116422B1FBF2F1C8
:1051700001F0F00100EBC00202EB001263689B003B
:10518000B2FBF3F26423B2FBF3F201EB021200EB89
:10519000C00101EB001163689B00B1FBF3F100EB70
:1051A000C00303EB00136668B600B3FBF6F3642696
:1051B000B3FBF6F303EBC30606EB0313A1EB83018A
:1051C000322303EB01116423B1FBF3F101F00F0172
:1051D00011442268916070BD003801402DE9F04112
:1051E00004460D4617469846069E34E0701C88B368
:1051F0002EB1FFF793F8A0EB0800B0422BD900BF07
:1052000000BF21680C3151E8001F21F4D0702168E3
:105210000C3141E80002002AF3D100BF00BF00BFFB
:105220002168143151E8001F21F001002168143178
:1052300041E80002002AF3D100BF202084F8410099
:1052400084F8420000BF002084F8400000BF032023
:10525000BDE8F081FFE7206800682840A84201D13E
:10526000012000E00020B842C0D00020F0E700009C
:105270001CB5002001901C4800680068C0F3401075
:10528000B8B11A480088802802D300201749088046
:105290004FF47A73012201A91348FFF7EFFC9DF840
:1052A0000410124802880088401C104B18801048D7
:1052B00081540D4800680068C0F3001098B10B4895
:1052C00001880B4800F096FF00F0ACFF00BF002003
:1052D0000090054800680068009003480068406836
:1052E000009000BF00BF1CBDCC01002006000020C4
:1052F0004C01002000BFFEE70FB4054B10B503A919
:10530000044A029800F046F810BC5DF814FB000057
:10531000A95800087400002002480068C0F3022069
:10532000704700000CED00E010B5002804DB0A0710
:10533000130E054A135406E00A07140E034A00F040
:105340000F031B1FD45410BD00E400E018ED00E073
:1053500000214FF07E50FAF7CFBF0121FBF7A4B830
:1053600000210846FAF7C8BF02E008C8121F08C1AA
:10537000002AFAD170477047002001E001C1121FD6
:10538000002AFBD170470000014908607047000007
:10539000780000202DE9FF4F8DB00F46054600260E
:1053A00006E025280BD0DDE90F1290476D1C761C16
:1053B00028780028F5D111B03046BDE8F08F0024E0
:1053C000A246A1460122E94900E0044315F8013F45
:1053D000203B02FA03F00842F7D128782A2810D09F
:1053E0006FF02F022878A0F13001092914D80AEBB8
:1053F0008A0102EB410144F0020400EB010A6D1C3A
:10540000F0E701CF5FEA000A03D544F40054CAF183
:10541000000A44F002046D1C28782E2817D115F8D4
:10542000010F44F004042A280ED06FF02F022878D0
:10543000A0F1300109290AD809EB890102EB4101E9
:1054400000EB01096D1CF2E757F8049B6D1C2878EE
:105450006C280FD006DC4C2817D068280DD06A289D
:1054600014D104E0742810D07A280FD10DE044F450
:1054700000140AE044F4801401E044F44014697814
:10548000814202D104F580146D1C6D1C28786E28B1
:105490001ED00CDC632830D004DC00288BD05828C8
:1054A00011D19FE0642867D069280CD164E073288B
:1054B0002DD004DC6F2872D0702804D194E07528B8
:1054C0006ED078286DD0DDE90F129047761C4BE145
:1054D000C4F30250022806D0032809D0042801CFC3
:1054E00009D0066040E101CFF117C0E900613BE15E
:1054F00001CF068038E1067036E117F8040B8DF80D
:10550000000000208DF80100EB46012003E057F871
:1055100004BB4FF0FF3061074FF0000102D40DE0F3
:1055200008F10101884649450FDA8045F8DB1BF890
:1055300008100029F4D108E008F1010188468142F1
:10554000FADB1BF808100029F6D1DDE90F23AAEBDE
:1055500008008146214600F031F9304400EB08068E
:1055600004E0DDE90F121BF8010B9047B8F10108C8
:10557000F7D221464846F2E00A21C4F302524FF026
:10558000000B0891022A04D001CFC117032A09D0C9
:105590000AE0FF1D27F00707F7E8020108E02CE00A
:1055A0001EE01FE000B2C117042A01D140B2C117AA
:1055B000021E71F1000206DA0023D0EB030063EB58
:1055C00001012D2202E0220504D52B228DF8242092
:1055D000012203E0E20701D02022F7E7904653E0E2
:1055E0000A210BE0102109E010214FF0000B44F0DC
:1055F00004044FF00809089103E008214FF0000B64
:105600000891C4F30252022A04D001CF0021032AD8
:1056100006D006E0FF1D27F00707F7E8020103E0C8
:1056200080B2042A00D1C0B24FF0000822072BD567
:105630002A78702A07D0DDF820C08CF0100C5CEAC4
:105640000B0C05D00EE040228DF82420012208E04A
:1056500050EA010306D030238DF824308DF8252040
:1056600002229046089B83F0080353EA0B030BD1F8
:1056700050EA010201D1620706D530228DF82420BC
:105680004FF00108A9F101092A78582A04D038A25C
:105690000B9208AA0A920BE03AA2F9E75B46089A35
:1056A000FAF79AFE0B9B9B5C0A9A521E0A921370A1
:1056B00050EA0102F2D10A98ADEB000000F1200B94
:1056C000600702D524F4803401E04FF00109D94588
:1056D00002DDA9EB0B0000E0002000EB0B014144D0
:1056E0000890AAEB010AE00306D4DDE90F23214666
:1056F000504600F063F806444FF0000908E009A99D
:1057000011F80900DDE90F12904709F10109761C33
:10571000C145F4DBE0030CD5DDE90F2321465046FB
:1057200000F04CF8064404E0DDE90F123020904709
:10573000761C0899481E08900029F5DC08E00A98B4
:105740000A990078491C0A91DDE90F129047761CEE
:10575000BBF10001ABF1010BF1DC21465046DDE964
:105760000F2300F019F806446D1C21E609280100FA
:1057700030313233343536373839616263646566C7
:105780000000000030313233343536373839414289
:1057900043444546000000002DE9F0410446002541
:1057A0001E461746880404D405E039462020B04739
:1057B0006D1C641EF9D52846BDE8F0812DE9F04145
:1057C000044600251E469046C80301D5302700E058
:1057D0002027880404D505E041463846B0476D1CB3
:1057E000641EF9D52846BDE8F08100000C48006829
:1057F00000F0807028B90A48006840F080700849BD
:1058000008600848006800F0010038B90020054928
:1058100048600846006840F00100086070470000DA
:10582000FCED00E0001000E070B5044604B970BD66
:1058300000F0EEFF02280ED100BFEFF3058050B953
:105840004FF47A7060434FF47A71B0FBF1F528465B
:1058500000F032FE08E003E04FF47A7000F006F842
:10586000201EA4F10104F7D100BFE0E770B50446A3
:1058700004B970BDFFF7BAFF084800680849B0FBDB
:10588000F1F000FB04F60748456800BF0548406892
:10589000401BB042FAD300BFEBE70000000000203D
:1058A00040420F00001000E000BF054A126802F0FD
:1058B0004002002AF9D0C2B2014B1B1D1A6070478A
:1058C0000038014010B50122D1030248FEF720FD47
:1058D00010BD00000008014010B500224FF4004147
:1058E0000148FEF715FD10BD0008014010B54FF44A
:1058F00000410248FEF702FD10BD00000008014013
:1059000000B585B000BF1948806940F00400174910
:1059100088610846806900F00400009000BF00BF65
:1059200000BF0846806940F0010088610846806930
:1059300000F00100009000BF00BF00BF0C494868A4
:1059400020F0E06040F00070486000BF4FF400407D
:1059500001900120029003900320049001A90548C2
:10596000FEF734FBFFF7AEFF05B000BD00100240AC
:1059700000000140000801402DE9F0410026A0F59B
:105980000001B1F1FE4F7DD200F500226FF07E01E3
:1059900001EBE251C2F3025477184FF07E52A0EBB4
:1059A000C15602EB045557EA040047D02946304659
:1059B000FAF718FC804629463046FAF765FC41465E
:1059C000FAF79AFC05460146FAF764FC8046454919
:1059D000FAF760FC4449FAF705FC064641462846BA
:1059E000FAF758FC3146FAF755FC06463846FAF7FE
:1059F00067FD07463D49FAF74DFC3D49794451F8AA
:105A00002410FAF7EFFB3146FAF7ECFB06460121CA
:105A10002846FAF749FD3146FAF7E4FB05463846D1
:105A20003449FAF737FC3449794451F82410FAF72D
:105A3000D9FB2946BDE8F041FAF7D4BB4FF07E51BF
:105A40003046FAF721FC05462C49FAF723FC2C498D
:105A5000FAF7C8FB2946FAF71DFC2A49FAF7C2FBF8
:105A60002946FAF717FC6FF08241FAF7BBFB0446B0
:105A700029460846FAF70EFC2146FAF70BFC0146C8
:105A8000284600E003E0BDE8F041FAF7ABBB4FF079
:105A90007F42B2EB400F03D2BDE8F041FFF75DBC9F
:105AA000B0F1FF4F08BFBDE8F081B0F1004F06D95B
:105AB0000120FFF769FCBDE8F041FFF751BC30F071
:105AC000004105D06FF016061721FAF7EDFC5BE7F1
:105AD0000220FFF759FCFFF73BFC80F00040BDE8D7
